:100000000C942A000C94530B0C9447000C9447005A
:100010000C9447000C9447000C9447000C94470044
:100020000C9447000C9447000C9447000C945A0C15
:100030000C9447000C9447000C9447000C94470024
:100040000C9447000C9447000C9447000C94470014
:100050000C94470011241FBECFE5D8E0DEBFCDBF12
:1000600011E0A0E6B0E0E0E8F0E402C005900D92F7
:10007000AC3EB107D9F711E0ACEEB1E001C01D9282
:10008000AE3FB107E1F70E942B150C943E200C9473
:100090000000EF92FF920F931F937B018C0120E0F1
:1000A00030E040E05FE40E94F50388238CF0C80153
:1000B000B70120E030E040E05FE40E94C1010E940F
:1000C000B3049B01AC01205030404040504806C072
:1000D000C801B7010E94B3049B01AC01B901CA0178
:1000E0001F910F91FF90EF900895A0E0B0E0EBE733
:1000F000F0E00C94F31FDC012B01FA019C9192308B
:1001000008F439C1EB018881823008F433C194309E
:1001100069F4843009F02FC111969C91119789815F
:10012000981709F428C1ACE8B0E025C1843009F47F
:1001300021C18230A9F4923009F01DC19A01AD01AC
:1001400088E0EA010990AE01E90109929E0181501F
:10015000C1F7E201898111969C918923818308C1AD
:10016000923009F407C112962D903C901397EB0141
:100170008A819B811496AD90BD90CD90DC901797AD
:10018000EC80FD800E811F819101281B390BB90184
:1001900037FF04C066277727621B730B6032710537
:1001A0000CF061C0121613066CF537014801062EDB
:1001B00004C096948794779467940A94D2F721E0C8
:1001C00030E040E050E004C0220F331F441F551FB1
:1001D0006A95D2F721503040404050402E213F21B7
:1001E00040235123211531054105510521F021E01E
:1001F00030E040E050E079018A01E628F72808293C
:1002000019293CC0232BD1F1260E371E350146019A
:10021000062E04C096948794779467940A94D2F734
:1002200021E030E040E050E004C0220F331F441FC3
:10023000551F6A95D2F721503040404050402A2146
:100240003B214C215D21211531054105510521F04E
:1002500021E030E040E050E059016A01A628B728CB
:10026000C828D9280BC0821593052CF01C01AA249C
:10027000BB24650103C0EE24FF24870111969C91E5
:10028000D20111968C91981709F445C0992339F041
:10029000A80197012A193B094C095D0906C0A6016E
:1002A00095012E193F09400B510B57FD08C01182D3
:1002B0003382228224833583468357831DC081E0A5
:1002C00081833382228288279927DC01821B930B4A
:1002D000A40BB50B84839583A683B7830DC0220F2F
:1002E000331F441F551F24833583468357838281E0
:1002F000938101979383828324813581468157813D
:10030000DA01C9010197A109B1098F5F9F4FAF4F72
:10031000BF4328F30BC0918333822282EA0CFB1C7B
:100320000C1D1D1DE482F5820683178383E0808304
:10033000248135814681578157FF1AC0C901AA27F8
:1003400097FDA095BA2F81709070A070B0705695EF
:10035000479537952795822B932BA42BB52B848318
:100360009583A683B7838281938101969383828349
:10037000DF0101C0D201CD01CDB7DEB7E2E10C94BF
:100380000F20A0E2B0E0E7ECF1E00C94FF1F6983DE
:100390007A838B839C832D833E834F835887E9E048
:1003A000EE2EF12CEC0EFD1ECE010196B7010E943F
:1003B0002B068E010F5E1F4FCE010596B8010E94DD
:1003C0002B068A8991E089278A8BC701B801AE0183
:1003D000475E5F4F0E9475000E945605A096E6E0BA
:1003E0000C941B20A0E2B0E0E8EFF1E00C94FF1FBA
:1003F00069837A838B839C832D833E834F835887C5
:10040000F9E0EF2EF12CEC0EFD1ECE010196B701A6
:100410000E942B068E010F5E1F4FCE010596B8017C
:100420000E942B06C701B801AE01475E5F4F0E94D4
:1004300075000E945605A096E6E00C941B20A0E2F1
:10044000B0E0E5E2F2E00C94F31F69837A838B83DA
:100450009C832D833E834F835887CE010196BE0136
:10046000675F7F4F0E942B06CE010596BE016F5E2F
:100470007F4F0E942B069985923088F089898230BF
:10048000C8F0943019F4823051F404C0843029F457
:10049000923081F48CE890E0C6C0923049F420E0BC
:1004A0009A858A89981321E02A87CE010996BBC0D4
:1004B000823049F420E09A858A89981321E02A8BBA
:1004C000CE014196B0C02D843E844F8458886D88FB
:1004D0007E888F88988CEE24FF248701AA24BB2471
:1004E000650140E050E060E070E0E0E0F0E0C10174
:1004F00081709070892BE9F0E60CF71C081D191D1E
:100500009A01AB012A0D3B1D4C1D5D1D80E090E062
:10051000A0E0B0E0E614F7040805190520F481E036
:1005200090E0A0E0B0E0BA01A901480F591F6A1F8E
:100530007B1FAA0CBB1CCC1CDD1C97FE08C081E0F5
:1005400090E0A0E0B0E0A82AB92ACA2ADB2A3196B6
:10055000E032F10549F0660C771C881C991C569412
:10056000479437942794C3CFFA85EA892B893C892D
:100570008B859C85280F391F2E5F3F4F17C0CA01FE
:1005800081709070892B61F016950795F794E79428
:1005900080E090E0A0E0B0E8E82AF92A0A2B1B2BC3
:1005A00076956795579547952F5F3F4F77FDE7CF36
:1005B0000CC0440F551F661F771F17FD4160EE0CDE
:1005C000FF1C001F111F21503040403090E05907A0
:1005D00090E0690790E4790760F32B8F3C8FDB0193
:1005E000CA018F779070A070B07080349105A1051A
:1005F000B10561F447FD0AC0E114F10401051105DC
:1006000029F0405C5F4F6F4F7F4F40781A8EFE1786
:1006100011F081E08A8F4D8F5E8F6F8F78A383E01A
:10062000898FCE0149960E945605A096E2E10C946E
:100630000F20A8E1B0E0EFE1F3E00C94FB1F698329
:100640007A838B839C832D833E834F835887B9E0C5
:10065000EB2EF12CEC0EFD1ECE010196B7010E948F
:100660002B068E010F5E1F4FCE010596B8010E942A
:100670002B062985223008F47EC03989323010F4E7
:10068000B8017CC08A859A8989278A87243011F02D
:10069000223031F4231709F06EC06CE870E06EC0B0
:1006A000343039F41D861E861F86188A1C861B86E8
:1006B00004C0323021F484E08987B7015FC02B8504
:1006C0003C858B899C89281B390B3C872B87ED84C3
:1006D000FE840F851889AD88BE88CF88D88CEA142F
:1006E000FB040C051D0540F4EE0CFF1C001F111F40
:1006F000215030403C872B8720E030E040E050E044
:1007000080E090E0A0E0B0E460E070E0EA14FB0478
:100710000C051D0540F0282B392B4A2B5B2BEA18C2
:10072000FB080C091D09B695A79597958795EE0CC2
:10073000FF1C001F111F6F5F7F4F6F31710531F775
:10074000DA01C9018F779070A070B0708034910584
:10075000A105B10561F427FD0AC0E114F10401050A
:10076000110529F0205C3F4F4F4F5F4F20782D87B8
:100770003E874F87588BBE01675F7F4FCB010E943A
:1007800056056896EAE00C941720A8E1B0E0EBEC7F
:10079000F3E00C94FF1F69837A838B839C832D8302
:1007A0003E834F83588789E0E82EF12CEC0EFD1E26
:1007B000CE010196B7010E942B068E010F5E1F4FDE
:1007C000CE010596B8010E942B068985823040F043
:1007D0008989823028F0C701B8010E94A30601C0B0
:1007E0008FEF6896E6E00C941B20A8E1B0E0EBEFF9
:1007F000F3E00C94FF1F69837A838B839C832D83A2
:100800003E834F83588789E0E82EF12CEC0EFD1EC5
:10081000CE010196B7010E942B068E010F5E1F4F7D
:10082000CE010596B8010E942B068985823040F0E2
:100830008989823028F0C701B8010E94A30601C04F
:100840008FEF6896E6E00C941B20A8E1B0E0EBE2A5
:10085000F4E00C94FF1F69837A838B839C832D8340
:100860003E834F83588789E0E82EF12CEC0EFD1E65
:10087000CE010196B7010E942B068E010F5E1F4F1D
:10088000CE010596B8010E942B068985823040F082
:100890008989823028F0C701B8010E94A30601C0EF
:1008A00081E06896E6E00C941B20A8E0B0E0EBE560
:1008B000F4E00C94FC1F9B01AC0183E08983DA0116
:1008C000C9018827B7FD83959927AA27BB27B82E8A
:1008D000211531054105510519F482E089833AC09B
:1008E0008823A9F0203080E0380780E0480780E8BE
:1008F000580729F460E070E080E09FEC30C0EE24FF
:10090000FF248701E21AF30A040B150B02C07901D8
:100910008A018EE1C82ED12CDC82CB82ED82FE8250
:100920000F831887C801B7010E94070501971816A1
:10093000190684F4082E04C0EE0CFF1C001F111FC2
:100940000A94D2F7ED82FE820F831887C81AD90A5B
:10095000DC82CB82BA82CE0101960E94560528968F
:10096000E9E00C941820ACE0B0E0E9EBF4E00C9482
:10097000032069837A838B839C83CE010196BE0119
:100980006B5F7F4F0E942B068D81823061F1823038
:1009900050F1843021F48E81882351F12EC02F81B3
:1009A000388537FD20C06E812F3131051CF066235C
:1009B000F9F023C08EE190E0821B930B29853A85E4
:1009C0004B855C8504C056954795379527958A9544
:1009D000D2F76623B1F050954095309521953F4F61
:1009E0004F4F5F4F0EC020E030E040E050E009C0C4
:1009F0002FEF3FEF4FEF5FE704C020E030E040E033
:100A000050E8B901CA012C96E2E00C941F20EF9245
:100A1000FF920F931F937B018C0180E0E81680E02A
:100A2000F80681E0080780E0180788F48FEFE816E1
:100A3000F1040105110531F028F088E090E0A0E014
:100A4000B0E017C080E090E0A0E0B0E012C080E02D
:100A5000E81680E0F80680E0080781E0180728F033
:100A600088E190E0A0E0B0E004C080E190E0A0E088
:100A7000B0E020E230E040E050E0281B390B4A0BA8
:100A80005B0B04C016950795F794E7948A95D2F707
:100A9000F701EC56FF4F8081281B310941095109AC
:100AA000C9011F910F91FF90EF900895DF92EF928F
:100AB000FF920F931F93FC01E480F580068117815C
:100AC000D1808081823048F480E090E0A0E1B0E005
:100AD000E82AF92A0A2B1B2BA5C0843009F49FC0F1
:100AE000823021F4EE24FF24870105C0E114F104D3
:100AF0000105110519F4E0E0F0E096C06281738110
:100B00009FEF623879070CF05BC022E83FEF261BAD
:100B1000370B2A3131052CF020E030E040E050E086
:100B20002AC0B801A701022E04C076956795579593
:100B300047950A94D2F781E090E0A0E0B0E004C0CD
:100B4000880F991FAA1FBB1F2A95D2F70197A109E9
:100B5000B1098E219F21A023B1230097A105B105E2
:100B600021F081E090E0A0E0B0E09A01AB01282BF9
:100B7000392B4A2B5B2BDA01C9018F779070A0705B
:100B8000B07080349105A105B10539F427FF09C083
:100B9000205C3F4F4F4F5F4F04C0215C3F4F4F4F92
:100BA0005F4FE0E0F0E02030A0E03A07A0E04A0725
:100BB000A0E45A0710F0E1E0F0E079018A0127C0D3
:100BC0006038710564F5FB01E158FF4FD801C7019A
:100BD0008F779070A070B07080349105A105B10539
:100BE00039F4E7FE0DC080E490E0A0E0B0E004C07E
:100BF0008FE390E0A0E0B0E0E80EF91E0A1F1B1F93
:100C000017FF05C016950795F794E794319687E08E
:100C100016950795F794E7948A95D1F705C0EE24C9
:100C2000FF248701EFEFF0E06E2F67956627679549
:100C3000902F9F77D794DD24D7948E2F8695492FB8
:100C4000462B582F5D29B701CA011F910F91FF90C4
:100C5000EF90DF900895FC01DB01408151812281FA
:100C6000622F6F7770E0221F2227221F9381892F26
:100C7000880F822B282F30E0991F9927991F1196F2
:100C80009C93119721153105A9F541155105610571
:100C9000710511F482E037C082E89FEF13969C93B0
:100CA0008E9312979A01AB0167E0220F331F441F06
:100CB000551F6A95D1F783E08C930DC0220F331F27
:100CC000441F551F12968D919C911397019713966F
:100CD0009C938E931297203080E0380780E048077D
:100CE00080E4580758F314962D933D934D935C93ED
:100CF000179708952F3F310579F441155105610586
:100D0000710519F484E08C93089564FF03C081E0B9
:100D10008C9312C01C9210C02F57304013963C93F6
:100D20002E93129783E08C9387E0440F551F661F24
:100D3000771F8A95D1F7706414964D935D936D93E8
:100D40007C93179708951F93DC01FB019C919230CF
:100D500008F447C08081823008F443C0943051F4D5
:100D600011961C91843099F58181682F70E0611B88
:100D700071093FC0843021F0923031F48230B9F1F2
:100D80008181882389F12DC011961C9111978230A1
:100D9000F1F081811817D9F412962D913C91139797
:100DA000828193818217930794F028173907BCF04A
:100DB00014968D919D910D90BC91A02D248135812B
:100DC00046815781281739074A075B0718F4112312
:100DD00041F00AC082179307A407B50740F4112316
:100DE00019F061E070E005C06FEF7FEF02C060E0D6
:100DF00070E0CB011F910895FB01DC0102C001905E
:100E00000D9241505040D8F70895FC010190002008
:100E1000E9F7809590958E0F9F1F0895FB019F0124
:100E2000E8944230C4F04532B4F44A3029F497FBD8
:100E30001EF4909581959F4F642F77270E942A205A
:100E4000805D8A330CF0895D8193CB010097A1F717
:100E500016F45DE251931082C9010C942F07DC0156
:100E6000FC01672F71917723E1F7329704C07C91E1
:100E70006D9370836291AE17BF07C8F30895DF9337
:100E8000CF93CDB7DEB7E3E5F0E01082E3E5F0E025
:100E900081E08083E2E5F0E01082A9E5B0E0E9E5D9
:100EA000F0E0808181608C93CF91DF910895DF9392
:100EB000CF9300D000D0CDB7DEB71A8219821A8244
:100EC000198258C129813A81C901880F991F820F5F
:100ED000931FFC01EC56FE4F8081282F30E03C83AD
:100EE0002B838B819C818130910509F461C02B811A
:100EF0003C81223031052CF48B819C81009771F06C
:100F000034C12B813C812230310509F49BC08B8197
:100F10009C818330910509F4DFC027C129813A8182
:100F2000C901880F991F820F931FFC01EA56FE4FDB
:100F300080818130F1F4AAE3B0E0EAE3F0E080815F
:100F4000482F29813A81C901880F991F820F931F69
:100F5000FC01EB56FE4F8081282F30E081E090E0CD
:100F6000022E02C0880F991F0A94E2F7842B8C93FB
:100F7000FCC0AAE3B0E0EAE3F0E08081482F2981D9
:100F80003A81C901880F991F820F931FFC01EB560C
:100F9000FE4F8081282F30E081E090E0022E02C0D9
:100FA000880F991F0A94E2F7809584238C93DDC003
:100FB00029813A81C901880F991F820F931FFC0173
:100FC000EA56FE4F80818130F1F4A7E3B0E0E7E319
:100FD000F0E08081482F29813A81C901880F991F4B
:100FE000820F931FFC01EB56FE4F8081282F30E0CB
:100FF00081E090E0022E02C0880F991F0A94E2F768
:10100000842B8C93B2C0A7E3B0E0E7E3F0E08081EB
:10101000482F29813A81C901880F991F820F931F98
:10102000FC01EB56FE4F8081282F30E081E090E0FC
:10103000022E02C0880F991F0A94E2F7809584233C
:101040008C9393C029813A81C901880F991F820F1F
:10105000931FFC01EA56FE4F80818130F1F4A4E336
:10106000B0E0E4E3F0E08081482F29813A81C901B2
:10107000880F991F820F931FFC01EB56FE4F808152
:10108000282F30E081E090E0022E02C0880F991FE7
:101090000A94E2F7842B8C9368C0A4E3B0E0E4E305
:1010A000F0E08081482F29813A81C901880F991F7A
:1010B000820F931FFC01EB56FE4F8081282F30E0FA
:1010C00081E090E0022E02C0880F991F0A94E2F797
:1010D000809584238C9349C029813A81C901880F66
:1010E000991F820F931FFC01EA56FE4F80818130C9
:1010F000F1F4A1E3B0E0E1E3F0E08081482F298141
:101100003A81C901880F991F820F931FFC01EB568A
:10111000FE4F8081282F30E081E090E0022E02C057
:10112000880F991F0A94E2F7842B8C931EC0A1E3C9
:10113000B0E0E1E3F0E08081482F29813A81C901E4
:10114000880F991F820F931FFC01EB56FE4F808181
:10115000282F30E081E090E0022E02C0880F991F16
:101160000A94E2F7809584238C9389819A81019671
:101170009A83898389819A818032910508F4A2CE6D
:101180000F900F900F900F90CF91DF910895DF9304
:10119000CF9300D000D000D0CDB7DEB78B836C8367
:1011A0008B818695869586958A838B8187708983C6
:1011B0008A81282F30E03E832D838D819E8181306E
:1011C000910509F443C02D813E81223031052CF474
:1011D0008D819E81009771F0BCC02D813E812230AF
:1011E000310509F45FC08D819E818330910509F43A
:1011F00085C0AFC08C818130A1F4ABE3B0E0EBE3FC
:10120000F0E08081482F8981282F30E081E090E054
:10121000022E02C0880F991F0A94E2F7842B8C9348
:1012200098C0ABE3B0E0EBE3F0E08081482F898128
:10123000282F30E081E090E0022E02C0880F991F35
:101240000A94E2F7809584238C9383C08C8181304B
:10125000A1F4A8E3B0E0E8E3F0E08081482F8981C1
:10126000282F30E081E090E0022E02C0880F991F05
:101270000A94E2F7842B8C936CC0A8E3B0E0E8E317
:10128000F0E08081482F8981282F30E081E090E0D4
:10129000022E02C0880F991F0A94E2F780958423DA
:1012A0008C9357C08C818130A1F4A5E3B0E0E5E3D5
:1012B000F0E08081482F8981282F30E081E090E0A4
:1012C000022E02C0880F991F0A94E2F7842B8C9398
:1012D00040C0A5E3B0E0E5E3F0E08081482F8981DC
:1012E000282F30E081E090E0022E02C0880F991F85
:1012F0000A94E2F7809584238C932BC08C818130F3
:10130000A1F4A2E3B0E0E2E3F0E08081482F89811C
:10131000282F30E081E090E0022E02C0880F991F54
:101320000A94E2F7842B8C9314C0A2E3B0E0E2E3CA
:10133000F0E08081482F8981282F30E081E090E023
:10134000022E02C0880F991F0A94E2F78095842329
:101350008C9326960FB6F894DEBF0FBECDBFCF910B
:10136000DF910895DF93CF9300D000D000D0CDB7A8
:10137000DEB78C831B828C818695869586958A83C1
:101380008C81877089838A81282F30E03E832D836A
:101390004D815E814130510541F18D819E818230C8
:1013A000910534F42D813E812115310561F053C042
:1013B0004D815E814230510551F18D819E81833096
:1013C0009105B9F148C0E9E3F0E08081282F30E0D1
:1013D0008981882F90E0A90102C0559547958A958B
:1013E000E2F7CA0181708B8338C0E6E3F0E08081C8
:1013F000282F30E08981882F90E0A90102C05595FF
:1014000047958A95E2F7CA0181708B8326C0E3E392
:10141000F0E08081282F30E08981882F90E0A901B9
:1014200002C0559547958A95E2F7CA0181708B8372
:1014300014C0E0E3F0E08081282F30E08981882F1C
:1014400090E0A90102C0559547958A95E2F7CA0137
:1014500081708B8302C08FEF8B838B8126960FB6B2
:10146000F894DEBF0FBECDBFCF91DF910895DF931B
:10147000CF93CDB7DEB7A1E3B0E0E1E3F0E0808148
:1014800081608C93A1E3B0E0E1E3F0E080818B7FA9
:101490008C93A2E3B0E0E2E3F0E0808184608C937F
:1014A0000E94570A0E943F07CF91DF910895DF9372
:1014B000CF93CDB7DEB7A5E5B0E0E5E5F0E08081FC
:1014C00081608C93ABE5B0E0EBE5F0E08081806477
:1014D0008C93CF91DF910895DF93CF93CDB7DEB793
:1014E00068970FB6F894DEBF0FBECDBF8091EC01B8
:1014F000882309F0CFC0A2E3B0E0E2E3F0E080810E
:1015000081608C9380E090E0A0E7B1E48D8B9E8BAE
:10151000AF8BB88F6D897E898F89988D2BEA3AEAD7
:101520004AEA50E40E941F02DC01CB01898B9A8BAE
:10153000AB8BBC8B69897A898B899C8920E030E0F0
:1015400040E85FE30E94250488231CF481E0888B37
:1015500091C069897A898B899C8920E030E04FE7C6
:1015600053E40E94C50318160CF07BC06D897E8978
:101570008F89988D20E030E04AE754E40E941903F7
:10158000DC01CB018C879D87AE87BF876C857D850D
:101590008E859F8520E030E04AE755E40E941F02D7
:1015A000DC01CB0188879987AA87BB876885798505
:1015B0008A859B8520E030E040E85FE30E942504B7
:1015C00088232CF481E090E09F838E833FC0688560
:1015D00079858A859B8520E03FEF4FE757E40E949D
:1015E000C50318164CF56C857D858E859F8520E09A
:1015F00030E040E251E40E941F02DC01CB01BC015B
:10160000CD010E944900DC01CB019F838E830FC076
:1016100080E991E09D838C838C819D810197F1F716
:101620009D838C838E819F8101979F838E838E8182
:101630009F81009769F724C0688579858A859B8595
:101640000E944900DC01CB019F838E838E819F81A4
:101650009B838A838A819B810197F1F79B838A838D
:101660000FC069897A898B899C890E944900DC01B5
:10167000CB01888B8889898389818A95F1F7898351
:10168000A2E3B0E0E2E3F0E080818E7F8C9381E022
:101690008093EC0168960FB6F894DEBF0FBECDBF05
:1016A000CF91DF9108951F920F920FB60F921124E0
:1016B0002F933F934F935F936F937F938F939F935A
:1016C000AF93BF93EF93FF93DF93CF93CDB7DEB785
:1016D0002E97DEBFCDBF8091EC01813009F0D4C0E0
:1016E0008091ED01882379F4E2E5F0E0108281E059
:1016F0008093ED011092EE011092EF011092F00133
:101700001092F101C1C08091EE019091EF01A09182
:10171000F001B091F1012227382F492F5A2FE2E52D
:10172000F0E08081882F90E0A0E0B0E0820F931F6E
:10173000A41FB51F22ED31E040E050E0BC01CD0117
:101740000E94D11FDA01C9019093F3018093F20145
:1017500081E060E00E94D3138091F2019091F30147
:1017600024EF31E0B9014AE050E00E940E0784EF17
:1017700091E00E9405078C509E4F20E630E0B901B1
:1017800045E050E00E94FC0684EF91E00E941011B9
:1017900080E090E0A0E2B2E48B879C87AD87BE87B3
:1017A0006B857C858D859E8520E030E04AE755E499
:1017B0000E941F02DC01CB018F839887A987BA871B
:1017C0006F81788589859A8520E030E040E85FE385
:1017D0000E94250488232CF481E090E09E838D8371
:1017E0003FC06F81788589859A8520E03FEF4FE77C
:1017F00057E40E94C50318164CF56B857C858D85D2
:101800009E8520E030E040E251E40E941F02DC01AE
:10181000CB01BC01CD010E944900DC01CB019E83BC
:101820008D830FC080E991E09C838B838B819C81A9
:101830000197F1F79C838B838D819E8101979E8315
:101840008D838D819E81009769F714C06F817885A3
:1018500089859A850E944900DC01CB019E838D8396
:101860008D819E819A83898389819A810197F1F77D
:101870009A8389831092EE011092EF011092F00189
:101880001092F1011092ED012E96DEBFCDBFCF91E7
:10189000DF91FF91EF91BF91AF919F918F917F91D8
:1018A0006F915F914F913F912F910F900FBE0F90CD
:1018B0001F9018951F920F920FB60F9211242F931D
:1018C0008F939F93AF93BF93EF93FF93DF93CF9348
:1018D000CDB7DEB78091EE019091EF01A091F001BC
:1018E000B091F1010196A11DB11D8093EE0190937D
:1018F000EF01A093F001B093F1018091EE0190917E
:10190000EF01A091F001B091F1018B3D22E092072F
:1019100020E0A20720E0B20778F0E2E5F0E01082D4
:101920001092EC011092ED011092EE011092EF0175
:101930001092F0011092F101CF91DF91FF91EF91A0
:10194000BF91AF919F918F912F910F900FBE0F90EC
:101950001F901895DF93CF93CDB7DEB7AFE4B0E01B
:10196000EFE4F0E08081826A8C93AEE4B0E0EEE4D4
:10197000F0E080818B618C93E6E4F0E087E893E10E
:1019800091838083CF91DF9108950F931F93DF930D
:10199000CF930F92CDB7DEB789830AE410E0898137
:1019A000882F90E0AA2797FDA095BA2FBC01CD0102
:1019B0000E945504DC01CB01BC01CD0125E83BEEC2
:1019C00041E350E40E941F02DC01CB01BC01CD01C8
:1019D00020E030E04AEF52E40E94F201DC01CB014A
:1019E000BC01CD010E94B304DC01CB01F80191835D
:1019F00080830F90CF91DF911F910F910895DF9316
:101A0000CF93CDB7DEB7E8970FB6F894DEBF0FBE21
:101A1000CDBFEAE3F0E080EF8083A7E3B0E0E7E347
:101A2000F0E080818E608C93EBE3F0E080E28083D5
:101A3000A8E3B0E0E8E3F0E0808188608C9380E088
:101A400090E0A0EAB0E48DAB9EABAFABB8AF6DA9B0
:101A50007EA98FA998AD20E030E04AE755E40E94C6
:101A60001F02DC01CB0189AB9AABABABBCAB69A964
:101A70007AA98BA99CA920E030E040E85FE30E94AE
:101A8000250488232CF481E090E098AB8FA73FC019
:101A900069A97AA98BA99CA920E03FEF4FE757E4F9
:101AA0000E94C50318164CF56DA97EA98FA998ADA3
:101AB00020E030E040E251E40E941F02DC01CB0153
:101AC000BC01CD010E944900DC01CB0198AB8FA77E
:101AD0000FC080E991E09EA78DA78DA59EA50197D7
:101AE000F1F79EA78DA78FA598A9019798AB8FA70F
:101AF0008FA598A9009769F714C069A97AA98BA93D
:101B00009CA90E944900DC01CB0198AB8FA78FA54F
:101B100098A99CA78BA78BA59CA50197F1F79CA7DB
:101B20008BA7A8E3B0E0E8E3F0E08081877F8C93A7
:101B300080E090E0A0EAB0E48FA398A7A9A7BAA795
:101B40006FA178A589A59AA520E030E04AE755E481
:101B50000E941F02DC01CB018BA39CA3ADA3BEA3FB
:101B60006BA17CA18DA19EA120E030E040E85FE365
:101B70000E94250488232CF481E090E09AA389A395
:101B80003FC06BA17CA18DA19EA120E03FEF4FE75C
:101B900057E40E94C50318164CF56FA178A589A5D6
:101BA0009AA520E030E040E251E40E941F02DC01EF
:101BB000CB01BC01CD010E944900DC01CB019AA3FD
:101BC00089A30FC080E991E098A38F8F8F8D98A192
:101BD0000197F1F798A38F8F89A19AA101979AA3F2
:101BE00089A389A19AA1009769F714C06BA17CA170
:101BF0008DA19EA10E944900DC01CB019AA389A37B
:101C000089A19AA19E8F8D8F8D8D9E8D0197F1F761
:101C10009E8F8D8F88E20E94000F80E090E0A0EA06
:101C2000B0E4898F9A8FAB8FBC8F698D7A8D8B8D45
:101C30009C8D20E030E04AE755E40E941F02DC0161
:101C4000CB018D8B9E8BAF8BB88F6D897E898F89F1
:101C5000988D20E030E040E85FE30E94250488236F
:101C60002CF481E090E09C8B8B8B3FC06D897E894A
:101C70008F89988D20E03FEF4FE757E40E94C5031E
:101C800018164CF5698D7A8D8B8D9C8D20E030E097
:101C900040E251E40E941F02DC01CB01BC01CD01F6
:101CA0000E944900DC01CB019C8B8B8B0FC080E92B
:101CB00091E09A8B898B89899A890197F1F79A8BA0
:101CC000898B8B899C8901979C8B8B8B8B899C89B9
:101CD000009769F714C06D897E898F89988D0E945D
:101CE0004900DC01CB019C8B8B8B8B899C89988B69
:101CF0008F878F8598890197F1F7988B8F878FE071
:101D00000E94000F80E090E0A0EAB0E48B879C87FF
:101D1000AD87BE876B857C858D859E8520E030E014
:101D20004AE755E40E941F02DC01CB018F839887AC
:101D3000A987BA876F81788589859A8520E030E008
:101D400040E85FE30E94250488232CF481E090E0C2
:101D50009E838D833FC06F81788589859A8520E039
:101D60003FEF4FE757E40E94C50318164CF56B850B
:101D70007C858D859E8520E030E040E251E40E9424
:101D80001F02DC01CB01BC01CD010E944900DC0136
:101D9000CB019E838D830FC080E991E09C838B8370
:101DA0008B819C810197F1F79C838B838D819E8130
:101DB00001979E838D838D819E81009769F714C062
:101DC0006F81788589859A850E944900DC01CB0165
:101DD0009E838D838D819E819A83898389819A8157
:101DE0000197F1F79A83898380E80E94000FE896B3
:101DF0000FB6F894DEBF0FBECDBFCF91DF9108952F
:101E0000DF93CF93CDB7DEB7E9970FB6F894DEBF77
:101E10000FBECDBF89AFEBE3F0E089AD807F80835B
:101E2000A8E3B0E0E8E3F0E080818D7F8C93A8E345
:101E3000B0E0E8E3F0E0808188608C9380E090E09F
:101E4000A0EAB0E48DAB9EABAFABB8AF6DA97EA9F5
:101E50008FA998AD20E030E04AE755E40E941F02C8
:101E6000DC01CB0189AB9AABABABBCAB69A97AA95E
:101E70008BA99CA920E030E040E85FE30E942504A4
:101E800088232CF481E090E098AB8FA73FC069A92C
:101E90007AA98BA99CA920E03FEF4FE757E40E9465
:101EA000C50318164CF56DA97EA98FA998AD20E041
:101EB00030E040E251E40E941F02DC01CB01BC0192
:101EC000CD010E944900DC01CB0198AB8FA70FC068
:101ED00080E991E09EA78DA78DA59EA50197F1F7BA
:101EE0009EA78DA78FA598A9019798AB8FA78FA5BF
:101EF00098A9009769F714C069A97AA98BA99CA928
:101F00000E944900DC01CB0198AB8FA78FA598A94F
:101F10009CA78BA78BA59CA50197F1F79CA78BA7E6
:101F2000A8E3B0E0E8E3F0E08081877F8C9380E075
:101F300090E0A0EAB0E48FA398A7A9A7BAA76FA1E1
:101F400078A589A59AA520E030E04AE755E40E94EB
:101F50001F02DC01CB018BA39CA3ADA3BEA36BA18D
:101F60007CA18DA19EA120E030E040E85FE30E94CB
:101F7000250488232CF481E090E09AA389A33FC034
:101F80006BA17CA18DA19EA120E03FEF4FE757E41C
:101F90000E94C50318164CF56FA178A589A59AA5CE
:101FA00020E030E040E251E40E941F02DC01CB015E
:101FB000BC01CD010E944900DC01CB019AA389A399
:101FC0000FC080E991E098A38F8F8F8D98A1019722
:101FD000F1F798A38F8F89A19AA101979AA389A35A
:101FE00089A19AA1009769F714C06BA17CA18DA16A
:101FF0009EA10E944900DC01CB019AA389A389A17B
:102000009AA19E8F8D8F8D8D9E8D0197F1F79E8F5A
:102010008D8FEBE3F0E089AD882F90E0829592956B
:10202000907F9827807F98278083A8E3B0E0E8E33B
:10203000F0E0808188608C9380E090E0A0EAB0E4DA
:10204000898F9A8FAB8FBC8F698D7A8D8B8D9C8D8C
:1020500020E030E04AE755E40E941F02DC01CB019A
:102060008D8B9E8BAF8BB88F6D897E898F89988D74
:1020700020E030E040E85FE30E94250488232CF450
:1020800081E090E09C8B8B8B3FC06D897E898F892E
:10209000988D20E03FEF4FE757E40E94C5031816E4
:1020A0004CF5698D7A8D8B8D9C8D20E030E040E27F
:1020B00051E40E941F02DC01CB01BC01CD010E9452
:1020C0004900DC01CB019C8B8B8B0FC080E991E038
:1020D0009A8B898B89899A890197F1F79A8B898BD9
:1020E0008B899C8901979C8B8B8B8B899C89009712
:1020F00069F714C06D897E898F89988D0E94490087
:10210000DC01CB019C8B8B8B8B899C89988B8F8777
:102110008F8598890197F1F7988B8F87A8E3B0E0B6
:10212000E8E3F0E08081877F8C9380E090E0A0EA94
:10213000B0E48B879C87AD87BE876B857C858D855A
:102140009E8520E030E04AE755E40E941F02DC0152
:10215000CB018F839887A987BA876F817885898516
:102160009A8520E030E040E85FE30E942504882360
:102170002CF481E090E09E838D833FC06F81788551
:1021800089859A8520E03FEF4FE757E40E94C50319
:1021900018164CF56B857C858D859E8520E030E09A
:1021A00040E251E40E941F02DC01CB01BC01CD01E1
:1021B0000E944900DC01CB019E838D830FC080E922
:1021C00091E09C838B838B819C810197F1F79C83A9
:1021D0008B838D819E8101979E838D838D819E81CE
:1021E000009769F714C06F81788589859A850E9468
:1021F0004900DC01CB019E838D838D819E819A8372
:10220000898389819A810197F1F79A838983E99675
:102210000FB6F894DEBF0FBECDBFCF91DF9108950A
:10222000DF93CF9300D000D0CDB7DEB79C838B83F4
:102230001A8219820FC029813A818B819C81FC010D
:10224000E20FF31F80810E943B1189819A810196E0
:102250009A83898329813A818B819C81FC01E20FD9
:10226000F31F8081882339F70F900F900F900F9004
:10227000CF91DF910895DF93CF93CDB7DEB7E99784
:102280000FB6F894DEBF0FBECDBF89AFEBE3F0E031
:1022900089AD807F8083A8E3B0E0E8E3F0E080814F
:1022A00082608C93A8E3B0E0E8E3F0E0808188608E
:1022B0008C9380E090E0A0EAB0E48DAB9EABAFAB36
:1022C000B8AF6DA97EA98FA998AD20E030E04AE7AC
:1022D00055E40E941F02DC01CB0189AB9AABABAB8A
:1022E000BCAB69A97AA98BA99CA920E030E040E8A1
:1022F0005FE30E94250488232CF481E090E098ABF2
:102300008FA73FC069A97AA98BA99CA920E03FEFBC
:102310004FE757E40E94C50318164CF56DA97EA936
:102320008FA998AD20E030E040E251E40E941F0206
:10233000DC01CB01BC01CD010E944900DC01CB01D5
:1023400098AB8FA70FC080E991E09EA78DA78DA5C0
:102350009EA50197F1F79EA78DA78FA598A9019734
:1023600098AB8FA78FA598A9009769F714C069A9A2
:102370007AA98BA99CA90E944900DC01CB0198ABEA
:102380008FA78FA598A99CA78BA78BA59CA5019724
:10239000F1F79CA78BA7A8E3B0E0E8E3F0E0808129
:1023A000877F8C9380E090E0A0EAB0E48FA398A7A9
:1023B000A9A7BAA76FA178A589A59AA520E030E0C2
:1023C0004AE755E40E941F02DC01CB018BA39CA3CA
:1023D000ADA3BEA36BA17CA18DA19EA120E030E0A6
:1023E00040E85FE30E94250488232CF481E090E01C
:1023F0009AA389A33FC06BA17CA18DA19EA120E0DF
:102400003FEF4FE757E40E94C50318164CF56FA144
:1024100078A589A59AA520E030E040E251E40E9429
:102420001F02DC01CB01BC01CD010E944900DC018F
:10243000CB019AA389A30FC080E991E098A38F8F65
:102440008F8D98A10197F1F798A38F8F89A19AA1F9
:1024500001979AA389A389A19AA1009769F714C04B
:102460006BA17CA18DA19EA10E944900DC01CB0142
:102470009AA389A389A19AA19E8F8D8F8D8D9E8D00
:102480000197F1F79E8F8D8FEBE3F0E089AD882FF8
:1024900090E082959295907F9827807F98278083FF
:1024A000A8E3B0E0E8E3F0E0808188608C9380E00E
:1024B00090E0A0EAB0E4898F9A8FAB8FBC8F698DD2
:1024C0007A8D8B8D9C8D20E030E04AE755E40E94A8
:1024D0001F02DC01CB018D8B9E8BAF8BB88F6D897A
:1024E0007E898F89988D20E030E040E85FE30E948C
:1024F000250488232CF481E090E09C8B8B8B3FC0DB
:102500006D897E898F89988D20E03FEF4FE757E4F2
:102510000E94C50318164CF5698D7A8D8B8D9C8DA4
:1025200020E030E040E251E40E941F02DC01CB01D8
:10253000BC01CD010E944900DC01CB019C8B8B8B3F
:102540000FC080E991E09A8B898B89899A890197DC
:10255000F1F79A8B898B8B899C8901979C8B8B8B4C
:102560008B899C89009769F714C06D897E898F8952
:10257000988D0E944900DC01CB019C8B8B8B8B8951
:102580009C89988B8F878F8598890197F1F7988B15
:102590008F87A8E3B0E0E8E3F0E08081877F8C9349
:1025A00080E090E0A0EAB0E48B879C87AD87BE878F
:1025B0006B857C858D859E8520E030E04AE755E47B
:1025C0000E941F02DC01CB018F839887A987BA87FD
:1025D0006F81788589859A8520E030E040E85FE367
:1025E0000E94250488232CF481E090E09E838D8353
:1025F0003FC06F81788589859A8520E03FEF4FE75E
:1026000057E40E94C50318164CF56B857C858D85B3
:102610009E8520E030E040E251E40E941F02DC0190
:10262000CB01BC01CD010E944900DC01CB019E839E
:102630008D830FC080E991E09C838B838B819C818B
:102640000197F1F79C838B838D819E8101979E83F7
:102650008D838D819E81009769F714C06F81788585
:1026600089859A850E944900DC01CB019E838D8378
:102670008D819E819A83898389819A810197F1F75F
:102680009A838983E9960FB6F894DEBF0FBECDBF5B
:10269000CF91DF910895DF93CF93CDB7DEB72E971B
:1026A0000FB6F894DEBF0FBECDBF81E00E94000FD1
:1026B00080E090E0A0EAB0E48B879C87AD87BE877E
:1026C0006B857C858D859E8520E030E04AE755E46A
:1026D0000E941F02DC01CB018F839887A987BA87EC
:1026E0006F81788589859A8520E030E040E85FE356
:1026F0000E94250488232CF481E090E09E838D8342
:102700003FC06F81788589859A8520E03FEF4FE74C
:1027100057E40E94C50318164CF56B857C858D85A2
:102720009E8520E030E040E251E40E941F02DC017F
:10273000CB01BC01CD010E944900DC01CB019E838D
:102740008D830FC080E991E09C838B838B819C817A
:102750000197F1F79C838B838D819E8101979E83E6
:102760008D838D819E81009769F714C06F81788574
:1027700089859A850E944900DC01CB019E838D8367
:102780008D819E819A83898389819A810197F1F74E
:102790009A8389832E960FB6F894DEBF0FBECDBF05
:1027A000CF91DF910895DF93CF93CDB7DEB76A97CE
:1027B0000FB6F894DEBF0FBECDBF898F6A8F898DAB
:1027C000882F90E000249695879507949695879595
:1027D0000794982F802D8068982F8A8D890F0E94EA
:1027E000000F80E090E0A8E4B2E48D8B9E8BAF8B6D
:1027F000B88F6D897E898F89988D2BEA3AEA4AEAEB
:1028000050E40E941F02DC01CB01898B9A8BAB8BB9
:10281000BC8B69897A898B899C8920E030E040E80B
:102820005FE30E94250488231CF481E0888B91C01B
:1028300069897A898B899C8920E030E04FE753E4ED
:102840000E94C50318160CF07BC06D897E898F89A4
:10285000988D20E030E04AE754E40E941903DC013F
:10286000CB018C879D87AE87BF876C857D858E85E4
:102870009F8520E030E04AE755E40E941F02DC011A
:10288000CB0188879987AA87BB87688579858A85E0
:102890009B8520E030E040E85FE30E942504882328
:1028A0002CF481E090E09F838E833FC0688579851A
:1028B0008A859B8520E03FEF4FE757E40E94C503E0
:1028C00018164CF56C857D858E859F8520E030E05F
:1028D00040E251E40E941F02DC01CB01BC01CD01AA
:1028E0000E944900DC01CB019F838E830FC080E9E9
:1028F00091E09D838C838C819D810197F1F79D836D
:102900008C838E819F8101979F838E838E819F818F
:10291000009769F724C0688579858A859B850E9420
:102920004900DC01CB019F838E838E819F819B8335
:102930008A838A819B810197F1F79B838A830FC0E9
:1029400069897A898B899C890E944900DC01CB01C5
:10295000888B8889898389818A95F1F789836A962A
:102960000FB6F894DEBF0FBECDBFCF91DF910895B3
:10297000DF93CF93CDB7DEB783E161E00E94C70854
:1029800085E161E00E94C70884E160E00E94C70819
:1029900086E160E00E94C708CF91DF910895DF9340
:1029A000CF93CDB7DEB783E160E00E94C70885E131
:1029B00060E00E94C70884E161E00E94C70886E1E8
:1029C00061E00E94C708CF91DF910895DF93CF9314
:1029D000CDB7DEB783E161E00E94C70885E160E022
:1029E0000E94C70884E160E00E94C70886E161E0B8
:1029F0000E94C708CF91DF910895DF93CF93CDB7A1
:102A0000DEB783E160E00E94C70885E161E00E94D3
:102A1000C70884E161E00E94C70886E160E00E9487
:102A2000C708CF91DF910895DF93CF93CDB7DEB77D
:102A300083E160E00E94C70885E160E00E94C7086A
:102A400084E160E00E94C70886E160E00E94C70858
:102A5000CF91DF9108950F931F93DF93CF93CDB75D
:102A6000DEB7C05ED0400FB6F894DEBF0FBECDBF5C
:102A70000E9457070E94FF0C0E94370A0E94AA0C6E
:102A800078948CE061E00E94C7088DE061E00E94CC
:102A9000C7088AE50E94C50CFE01E352FF4F80E0A3
:102AA00090E0AAEFB3E480839183A283B3838E0185
:102AB00007521F4FFE01E352FF4F608171818281F7
:102AC000938120E030E04AE755E40E941F02DC01D8
:102AD000CB01F80180839183A283B383FE01E75287
:102AE000FF4F608171818281938120E030E040E876
:102AF0005FE30E942504882344F4FE01E952FF4F5E
:102B000081E090E09183808364C0FE01E752FF4F33
:102B1000608171818281938120E03FEF4FE757E42C
:102B20000E94C50318160CF043C0FE01E352FF4F8C
:102B3000608171818281938120E030E040E251E444
:102B40000E941F02DC01CB018E0109521F4FBC0104
:102B5000CD010E944900DC01CB01F8019183808303
:102B60001FC0FE01EB52FF4F80E991E0918380830B
:102B7000FE01EB52FF4F808191810197F1F7FE0139
:102B8000EB52FF4F91838083DE01A952BF4FFE01BC
:102B9000E952FF4F80819181019711969C938E930A
:102BA000FE01E952FF4F808191810097D1F627C045
:102BB0008E0109521F4FFE01E752FF4F6081718164
:102BC000828193810E944900DC01CB01F80191834D
:102BD0008083DE01AD52BF4FFE01E952FF4F80817D
:102BE00091818D939C93FE01ED52FF4F80819181E5
:102BF0000197F1F7FE01ED52FF4F918380830E9410
:102C00006C0AFE01E153FF4F80E090E0A0E7B1E4E1
:102C100080839183A283B3838E0105531F4FFE01EE
:102C2000E153FF4F608171818281938120E030E028
:102C30004AE755E40E941F02DC01CB01F8018083C2
:102C40009183A283B383FE01E553FF4F60817181BD
:102C50008281938120E030E040E85FE30E94250418
:102C6000882344F4FE01E753FF4F81E090E0918315
:102C7000808364C0FE01E553FF4F608171818281D2
:102C8000938120E03FEF4FE757E40E94C5031816F9
:102C90000CF043C0FE01E153FF4F608171818281DE
:102CA000938120E030E040E251E40E941F02DC0109
:102CB000CB018E0107531F4FBC01CD010E9449007B
:102CC000DC01CB01F801918380831FC0FE01E95331
:102CD000FF4F80E991E091838083FE01E953FF4F2C
:102CE000808191810197F1F7FE01E953FF4F9183B4
:102CF0008083DE01A753BF4FFE01E753FF4F808162
:102D00009181019711969C938E93FE01E753FF4F9B
:102D1000808191810097D1F627C08E0107531F4F04
:102D2000FE01E553FF4F60817181828193810E9492
:102D30004900DC01CB01F80191838083DE01AB53B4
:102D4000BF4FFE01E753FF4F808191818D939C938C
:102D5000FE01EB53FF4F808191810197F1F7FE0156
:102D6000EB53FF4F918380838AE50E94C50C0E943C
:102D7000B814FE01EF53FF4F80E090E0A8ECB2E4FE
:102D800080839183A283B3838E0103541F4FFE017E
:102D9000EF53FF4F608171818281938120E030E0A9
:102DA0004AE755E40E941F02DC01CB01F801808351
:102DB0009183A283B383FE01E354FF4F608171814D
:102DC0008281938120E030E040E85FE30E942504A7
:102DD000882344F4FE01E554FF4F81E090E09183A5
:102DE000808364C0FE01E354FF4F60817181828162
:102DF000938120E03FEF4FE757E40E94C503181688
:102E00000CF043C0FE01EF53FF4F6081718182815E
:102E1000938120E030E040E251E40E941F02DC0197
:102E2000CB018E0105541F4FBC01CD010E9449000A
:102E3000DC01CB01F801918380831FC0FE01E754C0
:102E4000FF4F80E991E091838083FE01E754FF4FBB
:102E5000808191810197F1F7FE01E754FF4F918343
:102E60008083DE01A554BF4FFE01E554FF4F8081F2
:102E70009181019711969C938E93FE01E554FF4F2B
:102E8000808191810097D1F627C08E0105541F4F94
:102E9000FE01E354FF4F60817181828193810E9422
:102EA0004900DC01CB01F80191838083DE01A95444
:102EB000BF4FFE01E554FF4F808191818D939C931C
:102EC000FE01E954FF4F808191810197F1F7FE01E6
:102ED000E954FF4F918380838091F2019091F30137
:102EE000A091F401B091F50185319105A105B105DD
:102EF00010F00C94551F0E944B1385E690E00E9441
:102F00001011FE01ED54FF4F80E090E0A0E2B1E42B
:102F100080839183A283B3838E0101551F4FFE01ED
:102F2000ED54FF4F608171818281938120E030E018
:102F30004AE755E40E941F02DC01CB01F8018083BF
:102F40009183A283B383FE01E155FF4F60817181BC
:102F50008281938120E030E040E85FE30E94250415
:102F6000882344F4FE01E355FF4F81E090E0918314
:102F7000808364C0FE01E155FF4F608171818281D1
:102F8000938120E03FEF4FE757E40E94C5031816F6
:102F90000CF043C0FE01ED54FF4F608171818281CE
:102FA000938120E030E040E251E40E941F02DC0106
:102FB000CB018E0103551F4FBC01CD010E9449007A
:102FC000DC01CB01F801918380831FC0FE01E55530
:102FD000FF4F80E991E091838083FE01E555FF4F2B
:102FE000808191810197F1F7FE01E555FF4F9183B3
:102FF0008083DE01A355BF4FFE01E355FF4F808163
:103000009181019711969C938E93FE01E355FF4F9A
:10301000808191810097D1F627C08E0103551F4F03
:10302000FE01E155FF4F60817181828193810E9491
:103030004900DC01CB01F80191838083DE01A755B3
:10304000BF4FFE01E355FF4F808191818D939C938B
:10305000FE01E755FF4F808191810197F1F7FE0155
:10306000E755FF4F918380830E9414158DE20E94E3
:10307000C50CFE01EB55FF4F80E090E0AAE7B4E4F9
:1030800080839183A283B3838E010F551F4FFE016E
:10309000EB55FF4F608171818281938120E030E0A8
:1030A0004AE755E40E941F02DC01CB01F80180834E
:1030B0009183A283B383FE01EF55FF4F608171813D
:1030C0008281938120E030E040E85FE30E942504A4
:1030D000882344F4FE01E156FF4F81E090E09183A4
:1030E000808364C0FE01EF55FF4F60817181828152
:1030F000938120E03FEF4FE757E40E94C503181685
:103100000CF043C0FE01EB55FF4F6081718182815D
:10311000938120E030E040E251E40E941F02DC0194
:10312000CB018E0101561F4FBC01CD010E94490009
:10313000DC01CB01F801918380831FC0FE01E356BF
:10314000FF4F80E991E091838083FE01E356FF4FBA
:10315000808191810197F1F7FE01E356FF4F918342
:103160008083DE01A156BF4FFE01E156FF4F8081F3
:103170009181019711969C938E93FE01E156FF4F2A
:10318000808191810097D1F627C08E0101561F4F93
:10319000FE01EF55FF4F60817181828193810E9412
:1031A0004900DC01CB01F80191838083DE01A55643
:1031B000BF4FFE01E156FF4F808191818D939C931B
:1031C000FE01E556FF4F808191810197F1F7FE01E5
:1031D000E556FF4F918380830E944B130E946C0A37
:1031E0008091F2019091F301A091F401B091F50169
:1031F00085319105A105B10508F066C50E944B1304
:1032000085E690E00E941011FE01E956FF4F80E034
:1032100090E0A0E2B1E480839183A283B3838E0126
:103220000D561F4FFE01E956FF4F6081718182816B
:10323000938120E030E04AE755E40E941F02DC0160
:10324000CB01F80180839183A283B383FE01ED5605
:10325000FF4F608171818281938120E030E040E8FE
:103260005FE30E942504882344F4FE01EF56FF4FDC
:1032700081E090E09183808364C0FE01ED56FF4FB2
:10328000608171818281938120E03FEF4FE757E4B5
:103290000E94C50318160CF043C0FE01E956FF4F0B
:1032A000608171818281938120E030E040E251E4CD
:1032B0000E941F02DC01CB018E010F561F4FBC0183
:1032C000CD010E944900DC01CB01F801918380838C
:1032D0001FC0FE01E157FF4F80E991E09183808399
:1032E000FE01E157FF4F808191810197F1F7FE01C7
:1032F000E157FF4F91838083DE01AF56BF4FFE0140
:10330000EF56FF4F80819181019711969C938E9388
:10331000FE01EF56FF4F808191810097D1F627C0C3
:103320008E010F561F4FFE01ED56FF4F60817181D8
:10333000828193810E944900DC01CB01F8019183D5
:103340008083DE01A357BF4FFE01EF56FF4F808100
:1033500091818D939C93FE01E357FF4F8081918172
:103360000197F1F7FE01E357FF4F9183808387E8D0
:103370000E94C50CFE01E757FF4F80E090E0AAE7EE
:10338000B4E480839183A283B3838E010B571F4FD4
:10339000FE01E757FF4F608171818281938120E0B8
:1033A00030E04AE755E40E941F02DC01CB01F8013E
:1033B00080839183A283B383FE01EB57FF4F60812B
:1033C00071818281938120E030E040E85FE30E94D8
:1033D0002504882344F4FE01ED57FF4F81E090E07F
:1033E0009183808364C0FE01EB57FF4F6081718140
:1033F0008281938120E03FEF4FE757E40E94C503AD
:1034000018160CF043C0FE01E757FF4F6081718131
:103410008281938120E030E040E251E40E941F026B
:10342000DC01CB018E010D571F4FBC01CD010E9465
:103430004900DC01CB01F801918380831FC0FE01AC
:10344000EF57FF4F80E991E091838083FE01EF57B2
:10345000FF4F808191810197F1F7FE01EF57FF4FF8
:1034600091838083DE01AD57BF4FFE01ED57FF4FC3
:1034700080819181019711969C938E93FE01ED5767
:10348000FF4F808191810097D1F627C08E010D57A3
:103490001F4FFE01EB57FF4F608171818281938145
:1034A0000E944900DC01CB01F80191838083DE0199
:1034B000A158BF4FFE01ED57FF4F808191818D9341
:1034C0009C93FE01E158FF4F808191810197F1F7B4
:1034D000FE01E158FF4F918380830E944B130E94AD
:1034E0006C0A8091F2019091F301A091F401B091E6
:1034F000F50185319105A105B10508F0E0C20E94F2
:103500004B1385E690E00E941011FE01E558FF4F35
:1035100080E090E0A0E2B1E480839183A283B38352
:103520008E0109581F4FFE01E558FF4F60817181E0
:103530008281938120E030E04AE755E40E941F0237
:10354000DC01CB01F80180839183A283B383FE0168
:10355000E958FF4F608171818281938120E030E0E2
:1035600040E85FE30E942504882344F4FE01EB5801
:10357000FF4F81E090E09183808364C0FE01E958B1
:10358000FF4F608171818281938120E03FEF4FE79F
:1035900057E40E94C50318160CF043C0FE01E5581D
:1035A000FF4F608171818281938120E030E040E2B1
:1035B00051E40E941F02DC01CB018E010B581F4F0A
:1035C000BC01CD010E944900DC01CB01F8019183CF
:1035D00080831FC0FE01ED58FF4F80E991E0918389
:1035E0008083FE01ED58FF4F808191810197F1F7B3
:1035F000FE01ED58FF4F91838083DE01AB58BF4F32
:10360000FE01EB58FF4F80819181019711969C93A9
:103610008E93FE01EB58FF4F808191810097D1F688
:1036200027C08E010B581F4FFE01E958FF4F6081E4
:103630007181828193810E944900DC01CB01F801F4
:1036400091838083DE01AF58BF4FFE01EB58FF4FDF
:10365000808191818D939C93FE01EF58FF4F808173
:1036600091810197F1F7FE01EF58FF4F918380831D
:103670000E94CF14FE01E359FF4F80E090E0AAE7DB
:10368000B4E480839183A283B3838E0107591F4FD3
:10369000FE01E359FF4F608171818281938120E0B7
:1036A00030E04AE755E40E941F02DC01CB01F8013B
:1036B00080839183A283B383FE01E759FF4F60812A
:1036C00071818281938120E030E040E85FE30E94D5
:1036D0002504882344F4FE01E959FF4F81E090E07E
:1036E0009183808364C0FE01E759FF4F608171813F
:1036F0008281938120E03FEF4FE757E40E94C503AA
:1037000018160CF043C0FE01E359FF4F6081718130
:103710008281938120E030E040E251E40E941F0268
:10372000DC01CB018E0109591F4FBC01CD010E9464
:103730004900DC01CB01F801918380831FC0FE01A9
:10374000EB59FF4F80E991E091838083FE01EB59B3
:10375000FF4F808191810197F1F7FE01EB59FF4FF7
:1037600091838083DE01A959BF4FFE01E959FF4FC4
:1037700080819181019711969C938E93FE01E95966
:10378000FF4F808191810097D1F627C08E010959A2
:103790001F4FFE01E759FF4F608171818281938144
:1037A0000E944900DC01CB01F80191838083DE0196
:1037B000AD59BF4FFE01E959FF4F808191818D9333
:1037C0009C93FE01ED59FF4F808191810197F1F7A4
:1037D000FE01ED59FF4F918380830E94FD14FE018D
:1037E000E15AFF4F80E090E0AAEFB3E48083918339
:1037F000A283B3838E01055A1F4FFE01E15AFF4F8A
:10380000608171818281938120E030E04AE755E454
:103810000E941F02DC01CB01F80180839183A28307
:10382000B383FE01E55AFF4F6081718182819381EC
:1038300020E030E040E85FE30E942504882344F460
:10384000FE01E75AFF4F81E090E09183808364C0DE
:10385000FE01E55AFF4F608171818281938120E0F2
:103860003FEF4FE757E40E94C50318160CF043C022
:10387000FE01E15AFF4F608171818281938120E0D6
:1038800030E040E251E40E941F02DC01CB018E01D6
:10389000075A1F4FBC01CD010E944900DC01CB013A
:1038A000F801918380831FC0FE01E95AFF4F80E930
:1038B00091E091838083FE01E95AFF4F80819181DD
:1038C0000197F1F7FE01E95AFF4F91838083DE01F2
:1038D000A75ABF4FFE01E75AFF4F808191810197A0
:1038E00011969C938E93FE01E75AFF4F8081918140
:1038F0000097D1F627C08E01075A1F4FFE01E55AE7
:10390000FF4F60817181828193810E944900DC01B7
:10391000CB01F80191838083DE01AB5ABF4FFE01DA
:10392000E75AFF4F808191818D939C93FE01EB5A62
:10393000FF4F808191810197F1F7FE01EB5AFF4F14
:10394000918380830E941415FE01EF5AFF4F80E09F
:1039500090E0AAEFB3E480839183A283B3838E01C6
:10396000035B1F4FFE01EF5AFF4F6081718182811F
:10397000938120E030E04AE755E40E941F02DC0119
:10398000CB01F80180839183A283B383FE01E35BC3
:10399000FF4F608171818281938120E030E040E8B7
:1039A0005FE30E942504882344F4FE01E55BFF4F9A
:1039B00081E090E09183808364C0FE01E35BFF4F70
:1039C000608171818281938120E03FEF4FE757E46E
:1039D0000E94C50318160CF043C0FE01EF5AFF4FBA
:1039E000608171818281938120E030E040E251E486
:1039F0000E941F02DC01CB018E01055B1F4FBC0141
:103A0000CD010E944900DC01CB01F8019183808344
:103A10001FC0FE01E75BFF4F80E991E09183808347
:103A2000FE01E75BFF4F808191810197F1F7FE0175
:103A3000E75BFF4F91838083DE01A55BBF4FFE01F3
:103A4000E55BFF4F80819181019711969C938E9346
:103A5000FE01E55BFF4F808191810097D1F627C081
:103A60008E01055B1F4FFE01E35BFF4F608171819B
:103A7000828193810E944900DC01CB01F80191838E
:103A80008083DE01A95BBF4FFE01E55BFF4F8081B4
:103A900091818D939C93FE01E95BFF4F8081918121
:103AA0000197F1F7FE01E95BFF4F918380830E944C
:103AB0004B138AE50E94C50C0E946C0AF6C10E9455
:103AC0004B1387E790E00E941011FE01ED5BFF4F62
:103AD00080E090E0A0E2B1E480839183A283B3838D
:103AE0008E01015C1F4FFE01ED5BFF4F6081718114
:103AF0008281938120E030E04AE755E40E941F0272
:103B0000DC01CB01F80180839183A283B383FE01A2
:103B1000FF96608171818281938120E030E040E8EE
:103B20005FE30E94250488232CF481E090E09EAF9F
:103B30008DAF46C0FE01FF966081718182819381C5
:103B400020E03FEF4FE757E40E94C503181664F5E5
:103B5000FE01ED5BFF4F608171818281938120E0E6
:103B600030E040E251E40E941F02DC01CB01BC01C5
:103B7000CD010E944900DC01CB019EAF8DAF0FC08B
:103B800080E991E09CAF8BAF8BAD9CAD0197F1F7D5
:103B90009CAF8BAF8DAD9EAD01979EAF8DAF8DADC0
:103BA0009EAD009769F716C0FE01FF966081718196
:103BB000828193810E944900DC01CB019EAF8DAFD1
:103BC0008DAD9EAD9AAF89AF89AD9AAD0197F1F7F2
:103BD0009AAF89AF0E94E61480E090E0AAEFB3E4C8
:103BE0008DAB9EABAFABB8AF6DA97EA98FA998ADD9
:103BF00020E030E04AE755E40E941F02DC01CB01DF
:103C000089AB9AABABABBCAB69A97AA98BA99CA9D0
:103C100020E030E040E85FE30E94250488232CF494
:103C200081E090E098AB8FA73FC069A97AA98BA9E2
:103C30009CA920E03FEF4FE757E40E94C503181608
:103C40004CF56DA97EA98FA998AD20E030E040E247
:103C500051E40E941F02DC01CB01BC01CD010E9496
:103C60004900DC01CB0198AB8FA70FC080E991E040
:103C70009EA78DA78DA59EA50197F1F79EA78DA75D
:103C80008FA598A9019798AB8FA78FA598A90097A2
:103C900069F714C069A97AA98BA99CA90E94490057
:103CA000DC01CB0198AB8FA78FA598A99CA78BA708
:103CB0008BA59CA50197F1F79CA78BA70E944B139E
:103CC0008AE50E94C50CF1C00E944B1387E790E083
:103CD0000E94101180E090E0A0E2B1E48FA398A7C9
:103CE000A9A7BAA76FA178A589A59AA520E030E079
:103CF0004AE755E40E941F02DC01CB018BA39CA381
:103D0000ADA3BEA36BA17CA18DA19EA120E030E05C
:103D100040E85FE30E94250488232CF481E090E0D2
:103D20009AA389A33FC06BA17CA18DA19EA120E095
:103D30003FEF4FE757E40E94C50318164CF56FA1FB
:103D400078A589A59AA520E030E040E251E40E94E0
:103D50001F02DC01CB01BC01CD010E944900DC0146
:103D6000CB019AA389A30FC080E991E098A38F8F1C
:103D70008F8D98A10197F1F798A38F8F89A19AA1B0
:103D800001979AA389A389A19AA1009769F714C002
:103D90006BA17CA18DA19EA10E944900DC01CB01F9
:103DA0009AA389A389A19AA19E8F8D8F8D8D9E8DB7
:103DB0000197F1F79E8F8D8F0E94FD1480E090E0B7
:103DC000AAEFB3E4898F9A8FAB8FBC8F698D7A8D00
:103DD0008B8D9C8D20E030E04AE755E40E941F0265
:103DE000DC01CB018D8B9E8BAF8BB88F6D897E896B
:103DF0008F89988D20E030E040E85FE30E94250441
:103E000088232CF481E090E09C8B8B8B3FC06D89E4
:103E10007E898F89988D20E03FEF4FE757E40E941D
:103E2000C50318164CF5698D7A8D8B8D9C8D20E01D
:103E300030E040E251E40E941F02DC01CB01BC01F2
:103E4000CD010E944900DC01CB019C8B8B8B0FC004
:103E500080E991E09A8B898B89899A890197F1F79A
:103E60009A8B898B8B899C8901979C8B8B8B8B89F7
:103E70009C89009769F714C06D897E898F89988D18
:103E80000E944900DC01CB019C8B8B8B8B899C8928
:103E9000988B8F878F8598890197F1F7988B8F87FB
:103EA0000E944B138AE50E94C50C0E944B1387E7C2
:103EB00090E00E94101180E090E0A8ECB2E48B87C3
:103EC0009C87AD87BE876B857C858D859E8520E030
:103ED00030E04AE755E40E941F02DC01CB018F83EA
:103EE0009887A987BA876F81788589859A8520E028
:103EF00030E040E85FE30E94250488232CF481E051
:103F000090E09E838D833FC06F81788589859A85F7
:103F100020E03FEF4FE757E40E94C50318164CF529
:103F20006B857C858D859E8520E030E040E251E404
:103F30000E941F02DC01CB01BC01CD010E9449009F
:103F4000DC01CB019E838D830FC080E991E09C83CF
:103F50008B838B819C810197F1F79C838B838D816F
:103F60009E8101979E838D838D819E81009769F745
:103F700014C06F81788589859A850E944900DC018B
:103F8000CB019E838D838D819E819A8389838981D4
:103F90009A810197F1F79A8389830E944B130C94BD
:103FA000FF15A1E21A2EAA1BBB1BFD010DC0AA1F03
:103FB000BB1FEE1FFF1FA217B307E407F50720F092
:103FC000A21BB30BE40BF50B661F771F881F991F0D
:103FD0001A9469F760957095809590959B01AC0156
:103FE000BD01CF0108952F923F924F925F926F9241
:103FF0007F928F929F92AF92BF92CF92DF92EF9279
:10400000FF920F931F93CF93DF93CDB7DEB7CA1BF9
:10401000DB0B0FB6F894DEBF0FBECDBF09942A8824
:10402000398848885F846E847D848C849B84AA84CC
:10403000B984C884DF80EE80FD800C811B81AA8159
:10404000B981CE0FD11D0FB6F894DEBF0FBECDBF24
:10405000ED010895AA1BBB1B51E107C0AA1FBB1F9E
:10406000A617B70710F0A61BB70B881F991F5A9504
:10407000A9F780959095BC01CD010895F894FFCFE4
:1040800020636D20006F62737461636C65206465EA
:10409000746563746564006E6F206F62737461632E
:1040A0006C652064657465637465640000000000DD
:1040B00000000000000102020303030304040404DF
:1040C00004040404050505050505050505050505A4
:1040D0000505050506060606060606060606060684
:1040E0000606060606060606060606060606060670
:1040F0000606060607070707070707070707070754
:10410000070707070707070707070707070707073F
:10411000070707070707070707070707070707072F
:10412000070707070707070707070707070707071F
:104130000707070708080808080808080808080803
:1041400008080808080808080808080808080808EF
:1041500008080808080808080808080808080808DF
:1041600008080808080808080808080808080808CF
:1041700008080808080808080808080808080808BF
:1041800008080808080808080808080808080808AF
:10419000080808080808080808080808080808089F
:1041A000080808080808080808080808080808088F
:1041B00008080808000100000201000301010000D6
:1041C00002020002030102040102050102060102CB
:1041D00007010300010301010302000303010304BB
:1041E00001030501030600030700000401000501A7
:1041F00000060100070101010101020101030101A3
:0C42000004010105010106000107010096
:00000001FF
